{
  "contractName": "Rating",
  "abi": [
    {
      "constant": true,
      "inputs": [
        {
          "name": "",
          "type": "uint256"
        }
      ],
      "name": "moviesList",
      "outputs": [
        {
          "name": "",
          "type": "string"
        }
      ],
      "payable": false,
      "stateMutability": "view",
      "type": "function"
    },
    {
      "inputs": [
        {
          "name": "_moviesList",
          "type": "string[]"
        }
      ],
      "payable": false,
      "stateMutability": "nonpayable",
      "type": "constructor"
    },
    {
      "constant": false,
      "inputs": [
        {
          "name": "movieName",
          "type": "string"
        }
      ],
      "name": "addNewMovie",
      "outputs": [],
      "payable": false,
      "stateMutability": "nonpayable",
      "type": "function"
    },
    {
      "constant": true,
      "inputs": [
        {
          "name": "movieName",
          "type": "string"
        }
      ],
      "name": "totalVotesFor",
      "outputs": [
        {
          "name": "",
          "type": "uint8"
        }
      ],
      "payable": false,
      "stateMutability": "view",
      "type": "function"
    },
    {
      "constant": true,
      "inputs": [],
      "name": "getMovieNames",
      "outputs": [
        {
          "name": "",
          "type": "string[]"
        }
      ],
      "payable": false,
      "stateMutability": "view",
      "type": "function"
    },
    {
      "constant": false,
      "inputs": [
        {
          "name": "movieName",
          "type": "string"
        }
      ],
      "name": "voteForMovie",
      "outputs": [],
      "payable": false,
      "stateMutability": "nonpayable",
      "type": "function"
    }
  ],
  "bytecode": "0x60806040523480156200001157600080fd5b5060405162000cc138038062000cc18339810180604052620000379190810190620002c3565b80600090805190602001906200004f92919062000057565b5050620003c2565b828054828255906000526020600020908101928215620000ab579160200282015b82811115620000aa57825182908051906020019062000099929190620000be565b509160200191906001019062000078565b5b509050620000ba919062000145565b5090565b828054600181600116156101000203166002900490600052602060002090601f016020900481019282601f106200010157805160ff191683800117855562000132565b8280016001018555821562000132579182015b828111156200013157825182559160200191906001019062000114565b5b50905062000141919062000176565b5090565b6200017391905b808211156200016f57600081816200016591906200019e565b506001016200014c565b5090565b90565b6200019b91905b80821115620001975760008160009055506001016200017d565b5090565b90565b50805460018160011615610100020316600290046000825580601f10620001c65750620001e7565b601f016020900490600052602060002090810190620001e6919062000176565b5b50565b600082601f830112620001fc57600080fd5b8151620002136200020d8262000336565b62000308565b9150818183526020840193506020810190508360005b838110156200025d578151860162000242888262000267565b84526020840193506020830192505060018101905062000229565b5050505092915050565b600082601f8301126200027957600080fd5b8151620002906200028a826200035f565b62000308565b91508082526020830160208301858383011115620002ad57600080fd5b620002ba8382846200038c565b50505092915050565b600060208284031215620002d657600080fd5b600082015167ffffffffffffffff811115620002f157600080fd5b620002ff84828501620001ea565b91505092915050565b6000604051905081810181811067ffffffffffffffff821117156200032c57600080fd5b8060405250919050565b600067ffffffffffffffff8211156200034e57600080fd5b602082029050602081019050919050565b600067ffffffffffffffff8211156200037757600080fd5b601f19601f8301169050602081019050919050565b60005b83811015620003ac5780820151818401526020810190506200038f565b83811115620003bc576000848401525b50505050565b6108ef80620003d26000396000f3fe608060405234801561001057600080fd5b50600436106100575760003560e01c806332e4cc571461005c5780634a3bf377146100785780638cc97563146100a8578063a06914ff146100d8578063bac8c381146100f4575b600080fd5b61007660048036036100719190810190610545565b610112565b005b610092600480360361008d9190810190610545565b6101ef565b60405161009f919061075d565b60405180910390f35b6100c260048036036100bd9190810190610586565b610221565b6040516100cf919061071b565b60405180910390f35b6100f260048036036100ed9190810190610545565b6102da565b005b6100fc610323565b60405161010991906106f9565b60405180910390f35b600061011d8261040c565b90506002600082815260200190815260200160002060009054906101000a900460ff1615610180576040517f08c379a00000000000000000000000000000000000000000000000000000000081526004016101779061073d565b60405180910390fd5b60008290806001815401808255809150509060018203906000526020600020016000909192909190915090805190602001906101bd929190610437565b505060016002600083815260200190815260200160002060006101000a81548160ff0219169083151502179055505050565b6000600160006101fe8461040c565b815260200190815260200160002060009054906101000a900460ff169050919050565b6000818154811061022e57fe5b906000526020600020016000915090508054600181600116156101000203166002900480601f0160208091040260200160405190810160405280929190818152602001828054600181600116156101000203166002900480156102d25780601f106102a7576101008083540402835291602001916102d2565b820191906000526020600020905b8154815290600101906020018083116102b557829003601f168201915b505050505081565b60018060006102e88461040c565b815260200190815260200160002060008282829054906101000a900460ff160192506101000a81548160ff021916908360ff16021790555050565b60606000805480602002602001604051908101604052809291908181526020016000905b82821015610403578382906000526020600020018054600181600116156101000203166002900480601f0160208091040260200160405190810160405280929190818152602001828054600181600116156101000203166002900480156103ef5780601f106103c4576101008083540402835291602001916103ef565b820191906000526020600020905b8154815290600101906020018083116103d257829003601f168201915b505050505081526020019060010190610347565b50505050905090565b60006060829050600081511415610429576000801b915050610432565b60208301519150505b919050565b828054600181600116156101000203166002900490600052602060002090601f016020900481019282601f1061047857805160ff19168380011785556104a6565b828001600101855582156104a6579182015b828111156104a557825182559160200191906001019061048a565b5b5090506104b391906104b7565b5090565b6104d991905b808211156104d55760008160009055506001016104bd565b5090565b90565b600082601f8301126104ed57600080fd5b81356105006104fb826107a5565b610778565b9150808252602083016020830185838301111561051c57600080fd5b61052783828461084b565b50505092915050565b60008135905061053f8161089e565b92915050565b60006020828403121561055757600080fd5b600082013567ffffffffffffffff81111561057157600080fd5b61057d848285016104dc565b91505092915050565b60006020828403121561059857600080fd5b60006105a684828501610530565b91505092915050565b60006105bb8383610638565b905092915050565b60006105ce826107de565b6105d88185610801565b9350836020820285016105ea856107d1565b8060005b85811015610626578484038952815161060785826105af565b9450610612836107f4565b925060208a019950506001810190506105ee565b50829750879550505050505092915050565b6000610643826107e9565b61064d8185610812565b935061065d81856020860161085a565b6106668161088d565b840191505092915050565b600061067c826107e9565b6106868185610823565b935061069681856020860161085a565b61069f8161088d565b840191505092915050565b60006106b7601583610823565b91507f4d6f76696520616c7265616479206578697374732100000000000000000000006000830152602082019050919050565b6106f38161083e565b82525050565b6000602082019050818103600083015261071381846105c3565b905092915050565b600060208201905081810360008301526107358184610671565b905092915050565b60006020820190508181036000830152610756816106aa565b9050919050565b600060208201905061077260008301846106ea565b92915050565b6000604051905081810181811067ffffffffffffffff8211171561079b57600080fd5b8060405250919050565b600067ffffffffffffffff8211156107bc57600080fd5b601f19601f8301169050602081019050919050565b6000602082019050919050565b600081519050919050565b600081519050919050565b6000602082019050919050565b600082825260208201905092915050565b600082825260208201905092915050565b600082825260208201905092915050565b6000819050919050565b600060ff82169050919050565b82818337600083830152505050565b60005b8381101561087857808201518184015260208101905061085d565b83811115610887576000848401525b50505050565b6000601f19601f8301169050919050565b6108a781610834565b81146108b257600080fd5b5056fea265627a7a72305820dce79d0d5b0a08d93665cf14eedca91231506a69d2c347bb0784a29df45765c76c6578706572696d656e74616cf50037",
  "source": "pragma solidity ^0.5.0;\r\npragma experimental ABIEncoderV2;\r\n\r\ncontract Rating {\r\n    // List of movie names\r\n    string[] public moviesList;\r\n\r\n    // This mapping keeps track of each movie rating. Note that the key is bytes32 type\r\n    mapping (bytes32 => uint8) private ratings;\r\n    // This mapping keeps track of movie names to ensure no duplicates\r\n    mapping (bytes32 => bool) private movies;\r\n\r\n    constructor(string[] memory _moviesList) public {\r\n        moviesList = _moviesList;\r\n    }\r\n\r\n    // Adds new movie to the moviesList. Need to check whether movie already exists before adding to the list\r\n    function addNewMovie(string memory movieName) public {\r\n        bytes32 movieNameInBytes32 = stringToBytes32(movieName);\r\n        require(!movies[movieNameInBytes32], \"Movie already exists!\");\r\n        moviesList.push(movieName);\r\n        movies[movieNameInBytes32] = true;\r\n    }\r\n\r\n    // Returns the total ratings a movie has received so far. Hint: need to convert movieName from string to bytes32\r\n    function totalVotesFor(string memory movieName) public view returns (uint8) {\r\n        return ratings[stringToBytes32(movieName)];\r\n    }\r\n\r\n    function getMovieNames() public view returns (string[] memory) {\r\n        return moviesList;\r\n    }\r\n\r\n    // Increments the vote count for the specified movie. Equivalent to upvoting. Hint: need to convert movieName from string to bytes32\r\n    function voteForMovie(string memory movieName) public {\r\n        ratings[stringToBytes32(movieName)] += 1;\r\n    }\r\n  \r\n    // Converts string to bytes32\r\n    function stringToBytes32(string memory source) private pure returns (bytes32 result) {\r\n        bytes memory tempEmptyStringTest = bytes(source);\r\n        if (tempEmptyStringTest.length == 0) {\r\n            return 0x0;\r\n        }\r\n    \r\n        assembly {\r\n            result := mload(add(source, 32))\r\n        }\r\n    }\r\n}",
  "sourcePath": "/home/don/blockchain/movieApp/rating/contracts/Rating.sol",
  "compiler": {
    "name": "solc",
    "version": "0.5.8+commit.23d335f2.Emscripten.clang"
  },
  "schemaVersion": "3.0.11",
  "updatedAt": "2019-07-30T20:10:12.115Z",
  "devdoc": {
    "methods": {}
  },
  "userdoc": {
    "methods": {}
  }
}